{
  "contractName": "Jurisdiction",
  "abi": [
    {
      "constant": true,
      "inputs": [],
      "name": "name",
      "outputs": [
        {
          "name": "",
          "type": "string"
        }
      ],
      "payable": false,
      "stateMutability": "view",
      "type": "function",
      "signature": "0x06fdde03"
    },
    {
      "constant": true,
      "inputs": [],
      "name": "numBoundaryPoints",
      "outputs": [
        {
          "name": "",
          "type": "uint256"
        }
      ],
      "payable": false,
      "stateMutability": "view",
      "type": "function",
      "signature": "0x744fa256"
    },
    {
      "constant": true,
      "inputs": [],
      "name": "tax",
      "outputs": [
        {
          "name": "",
          "type": "uint256"
        }
      ],
      "payable": false,
      "stateMutability": "view",
      "type": "function",
      "signature": "0x99c8d556"
    },
    {
      "constant": true,
      "inputs": [
        {
          "name": "",
          "type": "uint256"
        }
      ],
      "name": "boundaries",
      "outputs": [
        {
          "name": "",
          "type": "int256"
        }
      ],
      "payable": false,
      "stateMutability": "view",
      "type": "function",
      "signature": "0xae61612f"
    },
    {
      "inputs": [],
      "payable": false,
      "stateMutability": "nonpayable",
      "type": "constructor",
      "signature": "constructor"
    },
    {
      "payable": true,
      "stateMutability": "payable",
      "type": "fallback"
    },
    {
      "constant": true,
      "inputs": [],
      "name": "getBalance",
      "outputs": [
        {
          "name": "balance_",
          "type": "uint256"
        }
      ],
      "payable": false,
      "stateMutability": "view",
      "type": "function",
      "signature": "0x12065fe0"
    },
    {
      "constant": false,
      "inputs": [
        {
          "name": "_boundaries",
          "type": "int256[]"
        }
      ],
      "name": "updateBoundaries",
      "outputs": [],
      "payable": false,
      "stateMutability": "nonpayable",
      "type": "function",
      "signature": "0x79456bdb"
    },
    {
      "constant": false,
      "inputs": [
        {
          "name": "_newTaxRate",
          "type": "uint256"
        }
      ],
      "name": "updateTaxRate",
      "outputs": [],
      "payable": false,
      "stateMutability": "nonpayable",
      "type": "function",
      "signature": "0x17fdcc8e"
    },
    {
      "constant": false,
      "inputs": [
        {
          "name": "_newName",
          "type": "string"
        }
      ],
      "name": "updateJurisdictionName",
      "outputs": [],
      "payable": false,
      "stateMutability": "nonpayable",
      "type": "function",
      "signature": "0xc9fd1e34"
    },
    {
      "constant": false,
      "inputs": [
        {
          "name": "_newOwner",
          "type": "address"
        }
      ],
      "name": "transferOwnership",
      "outputs": [],
      "payable": false,
      "stateMutability": "nonpayable",
      "type": "function",
      "signature": "0xf2fde38b"
    }
  ],
  "bytecode": "0x608060405234801561001057600080fd5b50336000806101000a81548173ffffffffffffffffffffffffffffffffffffffff021916908373ffffffffffffffffffffffffffffffffffffffff160217905550610a72806100606000396000f3fe6080604052600436106100a3576000357c01000000000000000000000000000000000000000000000000000000009004806379456bdb1161007657806379456bdb146101c657806399c8d5561461028b578063ae61612f146102b6578063c9fd1e3414610305578063f2fde38b146103cd576100a3565b806306fdde03146100a557806312065fe01461013557806317fdcc8e14610160578063744fa2561461019b575b005b3480156100b157600080fd5b506100ba61041e565b6040518080602001828103825283818151815260200191508051906020019080838360005b838110156100fa5780820151818401526020810190506100df565b50505050905090810190601f1680156101275780820380516001836020036101000a031916815260200191505b509250505060405180910390f35b34801561014157600080fd5b5061014a6104bc565b6040518082815260200191505060405180910390f35b34801561016c57600080fd5b506101996004803603602081101561018357600080fd5b81019080803590602001909291905050506104db565b005b3480156101a757600080fd5b506101b06105cc565b6040518082815260200191505060405180910390f35b3480156101d257600080fd5b50610289600480360360208110156101e957600080fd5b810190808035906020019064010000000081111561020657600080fd5b82018360208201111561021857600080fd5b8035906020019184602083028401116401000000008311171561023a57600080fd5b919080806020026020016040519081016040528093929190818152602001838360200280828437600081840152601f19601f8201169050808301925050505050505091929192905050506105d2565b005b34801561029757600080fd5b506102a06106db565b6040518082815260200191505060405180910390f35b3480156102c257600080fd5b506102ef600480360360208110156102d957600080fd5b81019080803590602001909291905050506106e1565b6040518082815260200191505060405180910390f35b34801561031157600080fd5b506103cb6004803603602081101561032857600080fd5b810190808035906020019064010000000081111561034557600080fd5b82018360208201111561035757600080fd5b8035906020019184600183028401116401000000008311171561037957600080fd5b91908080601f016020809104026020016040519081016040528093929190818152602001838380828437600081840152601f19601f820116905080830192505050505050509192919290505050610704565b005b3480156103d957600080fd5b5061041c600480360360208110156103f057600080fd5b81019080803573ffffffffffffffffffffffffffffffffffffffff169060200190929190505050610805565b005b60038054600181600116156101000203166002900480601f0160208091040260200160405190810160405280929190818152602001828054600181600116156101000203166002900480156104b45780601f10610489576101008083540402835291602001916104b4565b820191906000526020600020905b81548152906001019060200180831161049757829003601f168201915b505050505081565b60003073ffffffffffffffffffffffffffffffffffffffff1631905090565b6000809054906101000a900473ffffffffffffffffffffffffffffffffffffffff166000809054906101000a900473ffffffffffffffffffffffffffffffffffffffff1673ffffffffffffffffffffffffffffffffffffffff163373ffffffffffffffffffffffffffffffffffffffff161415156105c1576040517f08c379a000000000000000000000000000000000000000000000000000000000815260040180806020018281038252601f8152602001807f536f7272792c206f776e6572206d7573742063616c6c2066756e6374696f6e0081525060200191505060405180910390fd5b816004819055505050565b60025481565b6000809054906101000a900473ffffffffffffffffffffffffffffffffffffffff166000809054906101000a900473ffffffffffffffffffffffffffffffffffffffff1673ffffffffffffffffffffffffffffffffffffffff163373ffffffffffffffffffffffffffffffffffffffff161415156106b8576040517f08c379a000000000000000000000000000000000000000000000000000000000815260040180806020018281038252601f8152602001807f536f7272792c206f776e6572206d7573742063616c6c2066756e6374696f6e0081525060200191505060405180910390fd5b81600190805190602001906106ce92919061092f565b5081516002819055505050565b60045481565b6001818154811015156106f057fe5b906000526020600020016000915090505481565b6000809054906101000a900473ffffffffffffffffffffffffffffffffffffffff166000809054906101000a900473ffffffffffffffffffffffffffffffffffffffff1673ffffffffffffffffffffffffffffffffffffffff163373ffffffffffffffffffffffffffffffffffffffff161415156107ea576040517f08c379a000000000000000000000000000000000000000000000000000000000815260040180806020018281038252601f8152602001807f536f7272792c206f776e6572206d7573742063616c6c2066756e6374696f6e0081525060200191505060405180910390fd5b816003908051906020019061080092919061097c565b505050565b6000809054906101000a900473ffffffffffffffffffffffffffffffffffffffff166000809054906101000a900473ffffffffffffffffffffffffffffffffffffffff1673ffffffffffffffffffffffffffffffffffffffff163373ffffffffffffffffffffffffffffffffffffffff161415156108eb576040517f08c379a000000000000000000000000000000000000000000000000000000000815260040180806020018281038252601f8152602001807f536f7272792c206f776e6572206d7573742063616c6c2066756e6374696f6e0081525060200191505060405180910390fd5b816000806101000a81548173ffffffffffffffffffffffffffffffffffffffff021916908373ffffffffffffffffffffffffffffffffffffffff1602179055505050565b82805482825590600052602060002090810192821561096b579160200282015b8281111561096a57825182559160200191906001019061094f565b5b50905061097891906109fc565b5090565b828054600181600116156101000203166002900490600052602060002090601f016020900481019282601f106109bd57805160ff19168380011785556109eb565b828001600101855582156109eb579182015b828111156109ea5782518255916020019190600101906109cf565b5b5090506109f89190610a21565b5090565b610a1e91905b80821115610a1a576000816000905550600101610a02565b5090565b90565b610a4391905b80821115610a3f576000816000905550600101610a27565b5090565b9056fea165627a7a7230582099f2a96de3c6676576b12e4011f9253e2faba0681a957458a66a9f10a605281b0029",
  "source": "pragma solidity ^0.5.2;\n\n\npragma solidity ^0.5.2;\n\n\ncontract Jurisdiction {\n\n    address owner; // likely a jurisdiction's DAO contract address ...\n    int[] public boundaries;\n    uint public numBoundaryPoints;\n    string public name;\n    uint public tax; // donation rate\n\n    /*\n    @param _boundaries: An array of ints representing coordinates of boundary\n      vertices in nanodegrees (decimal degrees * 10**9)\n\n    */\n\n    constructor () public {\n\n        owner = msg.sender;\n\n        // uint l = _boundaries.length;\n\n        // // Check to make sure _boundaries array is the right length\n        // require(l % 2 == 0,\n        //     \"Please pass in an even-length boundaries array of [lon1, lat1, lon2, lat2, ... , lonN, latN]\");\n\n        // numBoundaryPoints = l;\n        // boundaries = _boundaries;\n        // name = _name;\n        // tax = _tax;\n    }\n\n    modifier owned (address _account) {\n        require (msg.sender == owner, \"Sorry, owner must call function\");\n        _;\n    }\n\n\n    function () external payable {\n\n    }\n\n    function getBalance () public view returns (uint balance_) {\n        return address(this).balance;\n    }\n\n    function updateBoundaries (int[] memory _boundaries) public owned(owner) {\n      boundaries = _boundaries;\n\n      numBoundaryPoints = _boundaries.length;\n    }\n\n    function updateTaxRate (uint _newTaxRate) public owned(owner) {\n        tax = _newTaxRate;\n    }\n\n    function updateJurisdictionName (string memory _newName) public owned(owner)  {\n        name = _newName;\n    }\n\n    function transferOwnership (address _newOwner) public owned(owner)  {\n        owner = _newOwner;\n    }\n\n\n\n}\n\ncontract LocationAware {\n\n    address owner;\n    mapping(address => bool) subscribedToJurisdiction; // to test within for each transaction\n    address[] public jurisdictions;\n\n    constructor () public {\n        owner = msg.sender;\n    }\n\n    modifier owned(address _address) {\n      require (_address == owner);\n      _;\n    }\n\n    // do we need this? Maybe owner includes funds with each .send() invocation\n    function fund () external payable {\n        // require(_value == msg.value);\n    }\n\n    function getBalance () public view returns (uint balance_) {\n        return address(this).balance;\n    }\n\n    function subscribeToJurisdiction (address _jurisdiction) public owned(owner) {\n        jurisdictions.push(_jurisdiction);\n        subscribedToJurisdiction[_jurisdiction] = true;\n    }\n\n    function unsubscribeFromJurisdiction (address _jurisdiction) public owned(owner) {\n        subscribedToJurisdiction[_jurisdiction] = false;\n    }\n\n    /*\n\n    */\n    function sendWithLocationChecks (\n      address payable _to,\n      int[2] memory _locationOfOwner,\n      uint _value)\n      public returns (uint)\n      {\n\n        require(msg.sender == owner);\n\n        uint numJurisdictionsToCheck = jurisdictions.length;\n\n        if (numJurisdictionsToCheck == 0) {\n            address(_to).transfer(_value);\n            return 0;\n            // return \"You're not subscribed to any jurisdictions.\";\n\n        }\n\n        for (uint i = 0; i < numJurisdictionsToCheck; i++) {\n\n            address payable jurisdictionAddress = address(uint160(jurisdictions[i]));\n            if (subscribedToJurisdiction[jurisdictionAddress] == true) {\n\n                Jurisdiction jurisdiction = Jurisdiction(jurisdictionAddress);\n                uint jurisdictionBoundariesLength = jurisdiction.numBoundaryPoints();\n\n                int[] memory jurisdictionBoundary = new int[](jurisdictionBoundariesLength);\n\n                for (uint j = 0; j < jurisdictionBoundariesLength; j++) {\n                    jurisdictionBoundary[j] = jurisdiction.boundaries(j);\n                }\n\n                if (withinJurisdictionBoundaries(_locationOfOwner, jurisdictionBoundary) == true) {\n                    // transmit value to sender\n\n                    address(_to).transfer(_value);\n\n                    uint taxToPay = 100;\n                    // transmit tax to jurisdiction\n                    address(jurisdictionAddress).transfer(taxToPay);\n\n                    return taxToPay;\n                }\n            }\n            }\n\n        // potential security flaw if somehow the for loop transmitted but didn't return ....\n        address(_to).transfer(_value);\n\n        return 0;\n\n    }\n\n    function withinJurisdictionBoundaries (int[2] memory _point, int[] memory _jurisdictionBoundaries) public returns (bool) {\n        return pointInPolygon(_point, _jurisdictionBoundaries);\n    }\n\n    // Translated from the impressive Javascript implementation by substack,\n    // https://github.com/substack/point-in-polygon/blob/master/index.js\n    // Really helpful explanation by Tom MacWright on Observable,\n    // https://observablehq.com/@tmcw/understanding-point-in-polygon\n    // Caution: Would be easy to run out of gas by sending complex geometries.\n    function pointInPolygon (int[2] memory _point, int[] memory _polygon ) public returns (bool pointInsidePolygon_) {\n\n        int x = _point[0];\n        int y = _point[1];\n\n        uint j = _polygon.length - 2;\n        uint l = _polygon.length;\n\n        bool inside = false;\n        for (uint i = 0; i < l - 1; i = i + 2) {\n\n            int xi = _polygon[i];\n            int yi = _polygon[i + 1];\n            int xj = _polygon[j];\n            int yj = _polygon[j + 1];\n\n            j = i;\n\n            bool intersect = ((yi > y) != (yj > y)) &&\n                (x < (xj - xi) * (y - yi) / (yj - yi) + xi);\n\n            if (intersect) inside = !inside;\n        }\n        return inside;\n\n    }\n\n}\n",
  "sourcePath": "/Users/iv/Code/projects/blockchain/eth-paris/contracts/LocationAware.sol",
  "compiler": {
    "name": "solc",
    "version": "0.5.2+commit.1df8f40c.Emscripten.clang"
  },
  "schemaVersion": "3.0.1",
  "updatedAt": "2019-03-09T21:01:19.762Z",
  "devdoc": {
    "methods": {}
  },
  "userdoc": {
    "methods": {}
  }
}