{
  "contractName": "Jurisdiction",
  "abi": [
    {
      "constant": true,
      "inputs": [],
      "name": "name",
      "outputs": [
        {
          "name": "",
          "type": "string"
        }
      ],
      "payable": false,
      "stateMutability": "view",
      "type": "function"
    },
    {
      "constant": true,
      "inputs": [],
      "name": "numBoundaryPoints",
      "outputs": [
        {
          "name": "",
          "type": "uint256"
        }
      ],
      "payable": false,
      "stateMutability": "view",
      "type": "function"
    },
    {
      "constant": true,
      "inputs": [],
      "name": "tax",
      "outputs": [
        {
          "name": "",
          "type": "uint256"
        }
      ],
      "payable": false,
      "stateMutability": "view",
      "type": "function"
    },
    {
      "constant": true,
      "inputs": [
        {
          "name": "",
          "type": "uint256"
        }
      ],
      "name": "boundaries",
      "outputs": [
        {
          "name": "",
          "type": "int256"
        }
      ],
      "payable": false,
      "stateMutability": "view",
      "type": "function"
    },
    {
      "inputs": [
        {
          "name": "_boundaries",
          "type": "int256[]"
        },
        {
          "name": "_tax",
          "type": "uint256"
        },
        {
          "name": "_name",
          "type": "string"
        }
      ],
      "payable": false,
      "stateMutability": "nonpayable",
      "type": "constructor"
    },
    {
      "constant": false,
      "inputs": [
        {
          "name": "_newTaxRate",
          "type": "uint256"
        }
      ],
      "name": "updateTaxRate",
      "outputs": [],
      "payable": false,
      "stateMutability": "nonpayable",
      "type": "function"
    },
    {
      "constant": false,
      "inputs": [
        {
          "name": "_newOwner",
          "type": "address"
        }
      ],
      "name": "transferOwnership",
      "outputs": [],
      "payable": false,
      "stateMutability": "nonpayable",
      "type": "function"
    },
    {
      "constant": false,
      "inputs": [
        {
          "name": "_newName",
          "type": "string"
        }
      ],
      "name": "updateJurisdictionName",
      "outputs": [],
      "payable": false,
      "stateMutability": "nonpayable",
      "type": "function"
    },
    {
      "constant": false,
      "inputs": [],
      "name": "sendFunds",
      "outputs": [],
      "payable": true,
      "stateMutability": "payable",
      "type": "function"
    },
    {
      "constant": true,
      "inputs": [],
      "name": "getBalance",
      "outputs": [
        {
          "name": "balance_",
          "type": "uint256"
        }
      ],
      "payable": false,
      "stateMutability": "view",
      "type": "function"
    }
  ],
  "bytecode": "0x60806040523480156200001157600080fd5b5060405162000bb938038062000bb9833981018060405260608110156200003757600080fd5b8101908080516401000000008111156200005057600080fd5b828101905060208101848111156200006757600080fd5b81518560208202830111640100000000821117156200008557600080fd5b5050929190602001805190602001909291908051640100000000811115620000ac57600080fd5b82810190506020810184811115620000c357600080fd5b8151856001820283011164010000000082111715620000e157600080fd5b5050929190505050336000806101000a81548173ffffffffffffffffffffffffffffffffffffffff021916908373ffffffffffffffffffffffffffffffffffffffff16021790555060008351905060006002828115156200013e57fe5b0614151562000199576040517f08c379a000000000000000000000000000000000000000000000000000000000815260040180806020018281038252605c81526020018062000b5d605c913960600191505060405180910390fd5b806002819055508360019080519060200190620001b8929190620001e3565b508160039080519060200190620001d192919062000235565b5082600481905550505050506200030c565b82805482825590600052602060002090810192821562000222579160200282015b828111156200022157825182559160200191906001019062000204565b5b509050620002319190620002bc565b5090565b828054600181600116156101000203166002900490600052602060002090601f016020900481019282601f106200027857805160ff1916838001178555620002a9565b82800160010185558215620002a9579182015b82811115620002a85782518255916020019190600101906200028b565b5b509050620002b89190620002e4565b5090565b620002e191905b80821115620002dd576000816000905550600101620002c3565b5090565b90565b6200030991905b8082111562000305576000816000905550600101620002eb565b5090565b90565b610841806200031c6000396000f3fe6080604052600436106100a3576000357c0100000000000000000000000000000000000000000000000000000000900480638d68cf59116100765780638d68cf59146101c957806399c8d556146101d3578063ae61612f146101fe578063c9fd1e341461024d578063f2fde38b14610315576100a3565b806306fdde03146100a857806312065fe01461013857806317fdcc8e14610163578063744fa2561461019e575b600080fd5b3480156100b457600080fd5b506100bd610366565b6040518080602001828103825283818151815260200191508051906020019080838360005b838110156100fd5780820151818401526020810190506100e2565b50505050905090810190601f16801561012a5780820380516001836020036101000a031916815260200191505b509250505060405180910390f35b34801561014457600080fd5b5061014d610404565b6040518082815260200191505060405180910390f35b34801561016f57600080fd5b5061019c6004803603602081101561018657600080fd5b8101908080359060200190929190505050610423565b005b3480156101aa57600080fd5b506101b3610514565b6040518082815260200191505060405180910390f35b6101d161051a565b005b3480156101df57600080fd5b506101e861051c565b6040518082815260200191505060405180910390f35b34801561020a57600080fd5b506102376004803603602081101561022157600080fd5b8101908080359060200190929190505050610522565b6040518082815260200191505060405180910390f35b34801561025957600080fd5b506103136004803603602081101561027057600080fd5b810190808035906020019064010000000081111561028d57600080fd5b82018360208201111561029f57600080fd5b803590602001918460018302840111640100000000831117156102c157600080fd5b91908080601f016020809104026020016040519081016040528093929190818152602001838380828437600081840152601f19601f820116905080830192505050505050509192919290505050610545565b005b34801561032157600080fd5b506103646004803603602081101561033857600080fd5b81019080803573ffffffffffffffffffffffffffffffffffffffff169060200190929190505050610646565b005b60038054600181600116156101000203166002900480601f0160208091040260200160405190810160405280929190818152602001828054600181600116156101000203166002900480156103fc5780601f106103d1576101008083540402835291602001916103fc565b820191906000526020600020905b8154815290600101906020018083116103df57829003601f168201915b505050505081565b60003073ffffffffffffffffffffffffffffffffffffffff1631905090565b6000809054906101000a900473ffffffffffffffffffffffffffffffffffffffff166000809054906101000a900473ffffffffffffffffffffffffffffffffffffffff1673ffffffffffffffffffffffffffffffffffffffff163373ffffffffffffffffffffffffffffffffffffffff16141515610509576040517f08c379a000000000000000000000000000000000000000000000000000000000815260040180806020018281038252601f8152602001807f536f7272792c206f776e6572206d7573742063616c6c2066756e6374696f6e0081525060200191505060405180910390fd5b816004819055505050565b60025481565b565b60045481565b60018181548110151561053157fe5b906000526020600020016000915090505481565b6000809054906101000a900473ffffffffffffffffffffffffffffffffffffffff166000809054906101000a900473ffffffffffffffffffffffffffffffffffffffff1673ffffffffffffffffffffffffffffffffffffffff163373ffffffffffffffffffffffffffffffffffffffff1614151561062b576040517f08c379a000000000000000000000000000000000000000000000000000000000815260040180806020018281038252601f8152602001807f536f7272792c206f776e6572206d7573742063616c6c2066756e6374696f6e0081525060200191505060405180910390fd5b8160039080519060200190610641929190610770565b505050565b6000809054906101000a900473ffffffffffffffffffffffffffffffffffffffff166000809054906101000a900473ffffffffffffffffffffffffffffffffffffffff1673ffffffffffffffffffffffffffffffffffffffff163373ffffffffffffffffffffffffffffffffffffffff1614151561072c576040517f08c379a000000000000000000000000000000000000000000000000000000000815260040180806020018281038252601f8152602001807f536f7272792c206f776e6572206d7573742063616c6c2066756e6374696f6e0081525060200191505060405180910390fd5b816000806101000a81548173ffffffffffffffffffffffffffffffffffffffff021916908373ffffffffffffffffffffffffffffffffffffffff1602179055505050565b828054600181600116156101000203166002900490600052602060002090601f016020900481019282601f106107b157805160ff19168380011785556107df565b828001600101855582156107df579182015b828111156107de5782518255916020019190600101906107c3565b5b5090506107ec91906107f0565b5090565b61081291905b8082111561080e5760008160009055506001016107f6565b5090565b9056fea165627a7a72305820025e2772382a67eede2894d88f00bda48e2dd73703bb3c1e1a9ef9744431e0090029506c65617365207061737320696e20616e206576656e2d6c656e67746820626f756e646172696573206172726179206f66205b6c6f6e312c206c6174312c206c6f6e322c206c6174322c202e2e2e202c206c6f6e4e2c206c61744e5d",
  "source": "pragma solidity ^0.5.2;\n\n/* import \"github.com/OpenZeppelin/openzeppelin-solidity/contracts/math/SafeMath.sol\"; */\n\n\ncontract Jurisdiction {\n\n    address owner; // likely a jurisdiction's DAO contract address ...\n    int[] public boundaries;\n    uint public numBoundaryPoints;\n    string public name;\n    uint public tax; // donation rate\n\n    /*\n    @param _boundaries: An array of ints representing coordinates of boundary vertices in nanodegrees (decimal degrees * 10**9)\n\n    */\n\n    constructor (int[] memory _boundaries, uint _tax, string memory _name) public {\n\n        owner = msg.sender;\n\n        uint l = _boundaries.length;\n\n        // Check to make sure _boundaries array is the right length\n        require(l % 2 == 0,\n            \"Please pass in an even-length boundaries array of [lon1, lat1, lon2, lat2, ... , lonN, latN]\");\n\n        numBoundaryPoints = l;\n        boundaries = _boundaries;\n        name = _name;\n        tax = _tax;\n    }\n\n    modifier owned (address _account) {\n        require (msg.sender == owner, \"Sorry, owner must call function\");\n        _;\n    }\n\n    function updateTaxRate (uint _newTaxRate) public owned(owner) {\n        tax = _newTaxRate;\n    }\n\n    function transferOwnership (address _newOwner) public owned(owner)  {\n        owner = _newOwner;\n    }\n\n    function updateJurisdictionName (string memory _newName) public owned(owner)  {\n        name = _newName;\n    }\n\n    function sendFunds () public payable {\n\n    }\n\n    function getBalance () public view returns (uint balance_) {\n        return address(this).balance;\n    }\n\n}\n\n\n\n\ncontract LocationAwareWallet {\n\n\n    address owner;\n    address[] subscribedJurisdictions; // to test within for each transaction\n\n\n    constructor (address[] memory _jurisdictions) public payable {\n        owner = msg.sender;\n        subscribedJurisdictions = _jurisdictions;\n    }\n\n    // do we need this? Maybe owner includes funds with each .send() invocation\n    function addFunds () public payable {\n        // require(_value == msg.value);\n    }\n\n    function getBalance () public view returns (uint balance_) {\n        return address(this).balance;\n    }\n\n    /*\n\n    */\n    function sendWithLocationChecks (\n      address payable _to,\n      int[2] memory _locationOfOwner,\n      uint _value)\n      public\n      {\n\n        require(msg.sender == owner);\n\n        uint numJurisdictionsToCheck = subscribedJurisdictions.length;\n\n        for (uint i = 0; i < numJurisdictionsToCheck; i++) {\n\n            address jurisdictionAddress = subscribedJurisdictions[i];\n\n            Jurisdiction jurisdiction = Jurisdiction(jurisdictionAddress);\n            uint jurisdictionBoundariesLength = jurisdiction.numBoundaryPoints();\n\n            int[] memory jurisdictionBoundary = new int[](jurisdictionBoundariesLength);\n\n            for (uint j = 0; j < jurisdictionBoundariesLength; j++) {\n                jurisdictionBoundary[j] = jurisdiction.boundaries(j);\n            }\n\n            if (withinJurisdictionBoundaries(_locationOfOwner, jurisdictionBoundary) == true) {\n                // transmit value to sender\n\n                address(_to).transfer(_value);\n\n                // transmit tax to jurisdiction\n                jurisdiction.sendFunds.value(_value * jurisdiction.tax() / 100);\n\n                // return \"HY\";\n                // return jurisdictionAddress;\n            }\n        }\n\n\n        // potential security flaw if somehow the for loop transmitted but didn't return ....\n        address(_to).transfer(_value);\n\n    }\n\n    function withinJurisdictionBbox(int[2] memory _point, int[2][2] memory _bbox) public returns (bool) {\n\n        int lon = _point[0];\n        int lat = _point[1];\n\n        if ((lon > _bbox[0][0] && lon < _bbox[1][0]) && (lat > _bbox[0][1] && lat < _bbox[1][1])) {\n            return true;\n        } else {\n            return false;\n        }\n    }\n\n    function withinJurisdictionBoundaries (int[2] memory _point, int[] memory _jurisdictionBoundaries) public returns (bool) {\n\n        // int[2][] memory jurisdictionBoundaries = fetchJurisdictionBoundaries(_jurisdictionAddress);\n        return pointInPolygon(_point, _jurisdictionBoundaries);\n    }\n\n    function getJurisdictionName (address _jurisdictionAddress) public returns (string memory jurisdictionName_) {\n        // look up name from address using mapping\n    }\n\n    // Translated from the impressive Javascript implementation by substack,\n    // https://github.com/substack/point-in-polygon/blob/master/index.js\n    // Really helpful explanation by Tom MacWright on Observable,\n    // https://observablehq.com/@tmcw/understanding-point-in-polygon\n    // Caution: Would be easy to run out of gas by sending complex geometries.\n    function pointInPolygon (int[2] memory _point, int[] memory _polygon ) public returns (bool pointInsidePolygon_) {\n\n        int x = _point[0];\n        int y = _point[1];\n\n        uint j = _polygon.length - 1;\n        uint l = _polygon.length;\n\n        bool inside = false;\n        for (uint i = 0; i < l; j = i + 2) {\n\n            int xi = _polygon[i];\n            int yi = _polygon[i + 1];\n            int xj = _polygon[j];\n            int yj = _polygon[j + 1];\n\n            bool intersect = ((yi > y) != (yj > y)) &&\n                (x < (xj - xi) * (y - yi) / (yj - yi) + xi);\n\n            if (intersect) inside = !inside;\n        }\n        return inside;\n\n    }\n\n}\n",
  "sourcePath": "/Users/iv/Code/projects/blockchain/eth-paris/contracts/LocationAware.sol",
  "compiler": {
    "name": "solc",
    "version": "0.5.2+commit.1df8f40c.Emscripten.clang"
  },
  "schemaVersion": "3.0.1",
  "updatedAt": "2019-03-09T19:10:16.030Z",
  "devdoc": {
    "methods": {}
  },
  "userdoc": {
    "methods": {}
  }
}