{
  "contractName": "LocationAware",
  "abi": [
    {
      "constant": true,
      "inputs": [
        {
          "name": "",
          "type": "uint256"
        }
      ],
      "name": "jurisdictions",
      "outputs": [
        {
          "name": "",
          "type": "address"
        }
      ],
      "payable": false,
      "stateMutability": "view",
      "type": "function",
      "signature": "0xfcd4fadf"
    },
    {
      "inputs": [],
      "payable": false,
      "stateMutability": "nonpayable",
      "type": "constructor",
      "signature": "constructor"
    },
    {
      "constant": false,
      "inputs": [],
      "name": "fund",
      "outputs": [],
      "payable": true,
      "stateMutability": "payable",
      "type": "function",
      "signature": "0xb60d4288"
    },
    {
      "constant": true,
      "inputs": [],
      "name": "getBalance",
      "outputs": [
        {
          "name": "balance_",
          "type": "uint256"
        }
      ],
      "payable": false,
      "stateMutability": "view",
      "type": "function",
      "signature": "0x12065fe0"
    },
    {
      "constant": false,
      "inputs": [
        {
          "name": "_jurisdiction",
          "type": "address"
        }
      ],
      "name": "subscribeToJurisdiction",
      "outputs": [],
      "payable": false,
      "stateMutability": "nonpayable",
      "type": "function",
      "signature": "0x104a9ff1"
    },
    {
      "constant": false,
      "inputs": [
        {
          "name": "_jurisdiction",
          "type": "address"
        }
      ],
      "name": "unsubscribeFromJurisdiction",
      "outputs": [],
      "payable": false,
      "stateMutability": "nonpayable",
      "type": "function",
      "signature": "0x3553afcf"
    },
    {
      "constant": false,
      "inputs": [
        {
          "name": "_to",
          "type": "address"
        },
        {
          "name": "_locationOfOwner",
          "type": "int256[2]"
        },
        {
          "name": "_value",
          "type": "uint256"
        }
      ],
      "name": "sendWithLocationChecks",
      "outputs": [
        {
          "name": "",
          "type": "uint256"
        }
      ],
      "payable": false,
      "stateMutability": "nonpayable",
      "type": "function",
      "signature": "0x29c0ec5f"
    },
    {
      "constant": false,
      "inputs": [
        {
          "name": "_point",
          "type": "int256[2]"
        },
        {
          "name": "_jurisdictionBoundaries",
          "type": "int256[]"
        }
      ],
      "name": "withinJurisdictionBoundaries",
      "outputs": [
        {
          "name": "",
          "type": "bool"
        }
      ],
      "payable": false,
      "stateMutability": "nonpayable",
      "type": "function",
      "signature": "0x7c404697"
    },
    {
      "constant": false,
      "inputs": [
        {
          "name": "_point",
          "type": "int256[2]"
        },
        {
          "name": "_polygon",
          "type": "int256[]"
        }
      ],
      "name": "pointInPolygon",
      "outputs": [
        {
          "name": "pointInsidePolygon_",
          "type": "bool"
        }
      ],
      "payable": false,
      "stateMutability": "nonpayable",
      "type": "function",
      "signature": "0xe16e36d1"
    }
  ],
  "bytecode": "0x608060405234801561001057600080fd5b50336000806101000a81548173ffffffffffffffffffffffffffffffffffffffff021916908373ffffffffffffffffffffffffffffffffffffffff160217905550610cfa806100606000396000f3fe608060405260043610610098576000357c0100000000000000000000000000000000000000000000000000000000900480637c4046971161006b5780637c4046971461021a578063b60d428814610338578063e16e36d114610342578063fcd4fadf1461046057610098565b8063104a9ff11461009d57806312065fe0146100ee57806329c0ec5f146101195780633553afcf146101c9575b600080fd5b3480156100a957600080fd5b506100ec600480360360208110156100c057600080fd5b81019080803573ffffffffffffffffffffffffffffffffffffffff1690602001909291905050506104db565b005b3480156100fa57600080fd5b50610103610619565b6040518082815260200191505060405180910390f35b34801561012557600080fd5b506101b36004803603608081101561013c57600080fd5b81019080803573ffffffffffffffffffffffffffffffffffffffff16906020019092919080604001906002806020026040519081016040528092919082600260200280828437600081840152601f19601f820116905080830192505050505050919291929080359060200190929190505050610638565b6040518082815260200191505060405180910390f35b3480156101d557600080fd5b50610218600480360360208110156101ec57600080fd5b81019080803573ffffffffffffffffffffffffffffffffffffffff169060200190929190505050610a78565b005b34801561022657600080fd5b5061031e6004803603606081101561023d57600080fd5b8101908080604001906002806020026040519081016040528092919082600260200280828437600081840152601f19601f82011690508083019250505050505091929192908035906020019064010000000081111561029b57600080fd5b8201836020820111156102ad57600080fd5b803590602001918460208302840111640100000000831117156102cf57600080fd5b919080806020026020016040519081016040528093929190818152602001838360200280828437600081840152601f19601f820116905080830192505050505050509192919290505050610b51565b604051808215151515815260200191505060405180910390f35b610340610b65565b005b34801561034e57600080fd5b506104466004803603606081101561036557600080fd5b8101908080604001906002806020026040519081016040528092919082600260200280828437600081840152601f19601f8201169050808301925050505050509192919290803590602001906401000000008111156103c357600080fd5b8201836020820111156103d557600080fd5b803590602001918460208302840111640100000000831117156103f757600080fd5b919080806020026020016040519081016040528093929190818152602001838360200280828437600081840152601f19601f820116905080830192505050505050509192919290505050610b67565b604051808215151515815260200191505060405180910390f35b34801561046c57600080fd5b506104996004803603602081101561048357600080fd5b8101908080359060200190929190505050610c90565b604051808273ffffffffffffffffffffffffffffffffffffffff1673ffffffffffffffffffffffffffffffffffffffff16815260200191505060405180910390f35b6000809054906101000a900473ffffffffffffffffffffffffffffffffffffffff166000809054906101000a900473ffffffffffffffffffffffffffffffffffffffff1673ffffffffffffffffffffffffffffffffffffffff168173ffffffffffffffffffffffffffffffffffffffff1614151561055857600080fd5b60028290806001815401808255809150509060018203906000526020600020016000909192909190916101000a81548173ffffffffffffffffffffffffffffffffffffffff021916908373ffffffffffffffffffffffffffffffffffffffff1602179055505060018060008473ffffffffffffffffffffffffffffffffffffffff1673ffffffffffffffffffffffffffffffffffffffff16815260200190815260200160002060006101000a81548160ff0219169083151502179055505050565b60003073ffffffffffffffffffffffffffffffffffffffff1631905090565b60008060009054906101000a900473ffffffffffffffffffffffffffffffffffffffff1673ffffffffffffffffffffffffffffffffffffffff163373ffffffffffffffffffffffffffffffffffffffff1614151561069557600080fd5b6000600280549050905060008114156106f9578473ffffffffffffffffffffffffffffffffffffffff166108fc849081150290604051600060405180830381858888f193505050501580156106ee573d6000803e3d6000fd5b506000915050610a71565b60008090505b81811015610a2357600060028281548110151561071857fe5b9060005260206000200160009054906101000a900473ffffffffffffffffffffffffffffffffffffffff16905060011515600160008373ffffffffffffffffffffffffffffffffffffffff1673ffffffffffffffffffffffffffffffffffffffff16815260200190815260200160002060009054906101000a900460ff1615151415610a1557600081905060008173ffffffffffffffffffffffffffffffffffffffff1663744fa2566040518163ffffffff167c010000000000000000000000000000000000000000000000000000000002815260040160206040518083038186803b15801561080757600080fd5b505afa15801561081b573d6000803e3d6000fd5b505050506040513d602081101561083157600080fd5b810190808051906020019092919050505090506060816040519080825280602002602001820160405280156108755781602001602082028038833980820191505090505b50905060008090505b82811015610957578373ffffffffffffffffffffffffffffffffffffffff1663ae61612f826040518263ffffffff167c01000000000000000000000000000000000000000000000000000000000281526004018082815260200191505060206040518083038186803b1580156108f357600080fd5b505afa158015610907573d6000803e3d6000fd5b505050506040513d602081101561091d57600080fd5b8101908080519060200190929190505050828281518110151561093c57fe5b9060200190602002018181525050808060010191505061087e565b50600115156109668a83610b51565b15151415610a11578973ffffffffffffffffffffffffffffffffffffffff166108fc899081150290604051600060405180830381858888f193505050501580156109b4573d6000803e3d6000fd5b506000606490508473ffffffffffffffffffffffffffffffffffffffff166108fc829081150290604051600060405180830381858888f19350505050158015610a01573d6000803e3d6000fd5b5080975050505050505050610a71565b5050505b5080806001019150506106ff565b508473ffffffffffffffffffffffffffffffffffffffff166108fc849081150290604051600060405180830381858888f19350505050158015610a6a573d6000803e3d6000fd5b5060009150505b9392505050565b6000809054906101000a900473ffffffffffffffffffffffffffffffffffffffff166000809054906101000a900473ffffffffffffffffffffffffffffffffffffffff1673ffffffffffffffffffffffffffffffffffffffff168173ffffffffffffffffffffffffffffffffffffffff16141515610af557600080fd5b6000600160008473ffffffffffffffffffffffffffffffffffffffff1673ffffffffffffffffffffffffffffffffffffffff16815260200190815260200160002060006101000a81548160ff0219169083151502179055505050565b6000610b5d8383610b67565b905092915050565b565b600080836000600281101515610b7957fe5b602002015190506000846001600281101515610b9157fe5b60200201519050600060028551039050600085519050600080905060008090505b60018303811015610c815760008882815181101515610bcd57fe5b90602001906020020151905060008960018401815181101515610bec57fe5b90602001906020020151905060008a87815181101515610c0857fe5b90602001906020020151905060008b60018901815181101515610c2757fe5b906020019060200201519050849750600089821315158a8513151514158015610c64575084848303858c0387860302811515610c5f57fe5b05018b125b90508015610c7157861596505b5050505050600281019050610bb2565b50809550505050505092915050565b600281815481101515610c9f57fe5b906000526020600020016000915054906101000a900473ffffffffffffffffffffffffffffffffffffffff168156fea165627a7a72305820bcc03805e5849bb8d7eb766b5cde817b68cf4d9914e74f0961f6c46a76ddd6fa0029",
  "source": "pragma solidity ^0.5.2;\n\n\npragma solidity ^0.5.2;\n\n\ncontract Jurisdiction {\n\n    address owner; // likely a jurisdiction's DAO contract address ...\n    int[] public boundaries;\n    uint public numBoundaryPoints;\n    string public name;\n    uint public tax; // donation rate\n\n    /*\n    @param _boundaries: An array of ints representing coordinates of boundary\n      vertices in nanodegrees (decimal degrees * 10**9)\n\n    */\n\n    constructor () public {\n\n        owner = msg.sender;\n\n        // uint l = _boundaries.length;\n\n        // // Check to make sure _boundaries array is the right length\n        // require(l % 2 == 0,\n        //     \"Please pass in an even-length boundaries array of [lon1, lat1, lon2, lat2, ... , lonN, latN]\");\n\n        // numBoundaryPoints = l;\n        // boundaries = _boundaries;\n        // name = _name;\n        // tax = _tax;\n    }\n\n    modifier owned (address _account) {\n        require (msg.sender == owner, \"Sorry, owner must call function\");\n        _;\n    }\n\n\n    function () external payable {\n\n    }\n\n    function getBalance () public view returns (uint balance_) {\n        return address(this).balance;\n    }\n\n    function updateBoundaries (int[] memory _boundaries) public owned(owner) {\n      boundaries = _boundaries;\n\n      numBoundaryPoints = _boundaries.length;\n    }\n\n    function updateTaxRate (uint _newTaxRate) public owned(owner) {\n        tax = _newTaxRate;\n    }\n\n    function updateJurisdictionName (string memory _newName) public owned(owner)  {\n        name = _newName;\n    }\n\n    function transferOwnership (address _newOwner) public owned(owner)  {\n        owner = _newOwner;\n    }\n\n\n\n}\n\ncontract LocationAware {\n\n    address owner;\n    mapping(address => bool) subscribedToJurisdiction; // to test within for each transaction\n    address[] public jurisdictions;\n\n    constructor () public {\n        owner = msg.sender;\n    }\n\n    modifier owned(address _address) {\n      require (_address == owner);\n      _;\n    }\n\n    // do we need this? Maybe owner includes funds with each .send() invocation\n    function fund () external payable {\n        // require(_value == msg.value);\n    }\n\n    function getBalance () public view returns (uint balance_) {\n        return address(this).balance;\n    }\n\n    function subscribeToJurisdiction (address _jurisdiction) public owned(owner) {\n        jurisdictions.push(_jurisdiction);\n        subscribedToJurisdiction[_jurisdiction] = true;\n    }\n\n    function unsubscribeFromJurisdiction (address _jurisdiction) public owned(owner) {\n        subscribedToJurisdiction[_jurisdiction] = false;\n    }\n\n    /*\n\n    */\n    function sendWithLocationChecks (\n      address payable _to,\n      int[2] memory _locationOfOwner,\n      uint _value)\n      public returns (uint)\n      {\n\n        require(msg.sender == owner);\n\n        uint numJurisdictionsToCheck = jurisdictions.length;\n\n        if (numJurisdictionsToCheck == 0) {\n            address(_to).transfer(_value);\n            return 0;\n            // return \"You're not subscribed to any jurisdictions.\";\n\n        }\n\n        for (uint i = 0; i < numJurisdictionsToCheck; i++) {\n\n            address payable jurisdictionAddress = address(uint160(jurisdictions[i]));\n            if (subscribedToJurisdiction[jurisdictionAddress] == true) {\n\n                Jurisdiction jurisdiction = Jurisdiction(jurisdictionAddress);\n                uint jurisdictionBoundariesLength = jurisdiction.numBoundaryPoints();\n\n                int[] memory jurisdictionBoundary = new int[](jurisdictionBoundariesLength);\n\n                for (uint j = 0; j < jurisdictionBoundariesLength; j++) {\n                    jurisdictionBoundary[j] = jurisdiction.boundaries(j);\n                }\n\n                if (withinJurisdictionBoundaries(_locationOfOwner, jurisdictionBoundary) == true) {\n                    // transmit value to sender\n\n                    address(_to).transfer(_value);\n\n                    uint taxToPay = 100;\n                    // transmit tax to jurisdiction\n                    address(jurisdictionAddress).transfer(taxToPay);\n\n                    return taxToPay;\n                }\n            }\n            }\n\n        // potential security flaw if somehow the for loop transmitted but didn't return ....\n        address(_to).transfer(_value);\n\n        return 0;\n\n    }\n\n    function withinJurisdictionBoundaries (int[2] memory _point, int[] memory _jurisdictionBoundaries) public returns (bool) {\n        return pointInPolygon(_point, _jurisdictionBoundaries);\n    }\n\n    // Translated from the impressive Javascript implementation by substack,\n    // https://github.com/substack/point-in-polygon/blob/master/index.js\n    // Really helpful explanation by Tom MacWright on Observable,\n    // https://observablehq.com/@tmcw/understanding-point-in-polygon\n    // Caution: Would be easy to run out of gas by sending complex geometries.\n    function pointInPolygon (int[2] memory _point, int[] memory _polygon ) public returns (bool pointInsidePolygon_) {\n\n        int x = _point[0];\n        int y = _point[1];\n\n        uint j = _polygon.length - 2;\n        uint l = _polygon.length;\n\n        bool inside = false;\n        for (uint i = 0; i < l - 1; i = i + 2) {\n\n            int xi = _polygon[i];\n            int yi = _polygon[i + 1];\n            int xj = _polygon[j];\n            int yj = _polygon[j + 1];\n\n            j = i;\n\n            bool intersect = ((yi > y) != (yj > y)) &&\n                (x < (xj - xi) * (y - yi) / (yj - yi) + xi);\n\n            if (intersect) inside = !inside;\n        }\n        return inside;\n\n    }\n\n}\n",
  "sourcePath": "/Users/iv/Code/projects/blockchain/eth-paris/contracts/LocationAware.sol",
  "compiler": {
    "name": "solc",
    "version": "0.5.2+commit.1df8f40c.Emscripten.clang"
  },
  "schemaVersion": "3.0.1",
  "updatedAt": "2019-03-09T21:01:19.769Z",
  "devdoc": {
    "methods": {}
  },
  "userdoc": {
    "methods": {}
  }
}