{
  "contractName": "LocationAwareWallet",
  "abi": [
    {
      "inputs": [
        {
          "name": "_jurisdictions",
          "type": "address[]"
        }
      ],
      "payable": true,
      "stateMutability": "payable",
      "type": "constructor"
    },
    {
      "constant": false,
      "inputs": [],
      "name": "addFunds",
      "outputs": [],
      "payable": true,
      "stateMutability": "payable",
      "type": "function"
    },
    {
      "constant": true,
      "inputs": [],
      "name": "getBalance",
      "outputs": [
        {
          "name": "balance_",
          "type": "uint256"
        }
      ],
      "payable": false,
      "stateMutability": "view",
      "type": "function"
    },
    {
      "constant": false,
      "inputs": [
        {
          "name": "_to",
          "type": "address"
        },
        {
          "name": "_locationOfOwner",
          "type": "int256[2]"
        },
        {
          "name": "_value",
          "type": "uint256"
        }
      ],
      "name": "sendWithLocationChecks",
      "outputs": [],
      "payable": false,
      "stateMutability": "nonpayable",
      "type": "function"
    },
    {
      "constant": false,
      "inputs": [
        {
          "name": "_point",
          "type": "int256[2]"
        },
        {
          "name": "_bbox",
          "type": "int256[2][2]"
        }
      ],
      "name": "withinJurisdictionBbox",
      "outputs": [
        {
          "name": "",
          "type": "bool"
        }
      ],
      "payable": false,
      "stateMutability": "nonpayable",
      "type": "function"
    },
    {
      "constant": false,
      "inputs": [
        {
          "name": "_point",
          "type": "int256[2]"
        },
        {
          "name": "_jurisdictionBoundaries",
          "type": "int256[]"
        }
      ],
      "name": "withinJurisdictionBoundaries",
      "outputs": [
        {
          "name": "",
          "type": "bool"
        }
      ],
      "payable": false,
      "stateMutability": "nonpayable",
      "type": "function"
    },
    {
      "constant": false,
      "inputs": [
        {
          "name": "_jurisdictionAddress",
          "type": "address"
        }
      ],
      "name": "getJurisdictionName",
      "outputs": [
        {
          "name": "jurisdictionName_",
          "type": "string"
        }
      ],
      "payable": false,
      "stateMutability": "nonpayable",
      "type": "function"
    },
    {
      "constant": false,
      "inputs": [
        {
          "name": "_point",
          "type": "int256[2]"
        },
        {
          "name": "_polygon",
          "type": "int256[]"
        }
      ],
      "name": "pointInPolygon",
      "outputs": [
        {
          "name": "pointInsidePolygon_",
          "type": "bool"
        }
      ],
      "payable": false,
      "stateMutability": "nonpayable",
      "type": "function"
    }
  ],
  "bytecode": "0x6080604052604051610da5380380610da58339810180604052602081101561002657600080fd5b81019080805164010000000081111561003e57600080fd5b8281019050602081018481111561005457600080fd5b815185602082028301116401000000008211171561007157600080fd5b5050929190505050336000806101000a81548173ffffffffffffffffffffffffffffffffffffffff021916908373ffffffffffffffffffffffffffffffffffffffff16021790555080600190805190602001906100cf9291906100d6565b50506101a3565b82805482825590600052602060002090810192821561014f579160200282015b8281111561014e5782518260006101000a81548173ffffffffffffffffffffffffffffffffffffffff021916908373ffffffffffffffffffffffffffffffffffffffff160217905550916020019190600101906100f6565b5b50905061015c9190610160565b5090565b6101a091905b8082111561019c57600081816101000a81549073ffffffffffffffffffffffffffffffffffffffff021916905550600101610166565b5090565b90565b610bf3806101b26000396000f3fe60806040526004361061008d576000357c0100000000000000000000000000000000000000000000000000000000900480637c4046971161006b5780637c4046971461025c578063a26759cb1461037a578063c5715b6414610384578063e16e36d11461044e5761008d565b806312065fe01461009257806329c0ec5f146100bd5780636f766db514610159575b600080fd5b34801561009e57600080fd5b506100a761056c565b6040518082815260200191505060405180910390f35b3480156100c957600080fd5b50610157600480360360808110156100e057600080fd5b81019080803573ffffffffffffffffffffffffffffffffffffffff16906020019092919080604001906002806020026040519081016040528092919082600260200280828437600081840152601f19601f82011690508083019250505050505091929192908035906020019092919050505061058b565b005b34801561016557600080fd5b50610242600480360360c081101561017c57600080fd5b8101908080604001906002806020026040519081016040528092919082600260200280828437600081840152601f19601f82011690508083019250505050505091929192908060800190600280602002604051908101604052809291906000905b82821015610231578382604002016002806020026040519081016040528092919082600260200280828437600081840152601f19601f820116905080830192505050505050815260200190600101906101dd565b50505050919291929050505061097d565b604051808215151515815260200191505060405180910390f35b34801561026857600080fd5b506103606004803603606081101561027f57600080fd5b8101908080604001906002806020026040519081016040528092919082600260200280828437600081840152601f19601f8201169050808301925050505050509192919290803590602001906401000000008111156102dd57600080fd5b8201836020820111156102ef57600080fd5b8035906020019184602083028401116401000000008311171561031157600080fd5b919080806020026020016040519081016040528093929190818152602001838360200280828437600081840152601f19601f820116905080830192505050505050509192919290505050610a87565b604051808215151515815260200191505060405180910390f35b610382610a9b565b005b34801561039057600080fd5b506103d3600480360360208110156103a757600080fd5b81019080803573ffffffffffffffffffffffffffffffffffffffff169060200190929190505050610a9d565b6040518080602001828103825283818151815260200191508051906020019080838360005b838110156104135780820151818401526020810190506103f8565b50505050905090810190601f1680156104405780820380516001836020036101000a031916815260200191505b509250505060405180910390f35b34801561045a57600080fd5b506105526004803603606081101561047157600080fd5b8101908080604001906002806020026040519081016040528092919082600260200280828437600081840152601f19601f8201169050808301925050505050509192919290803590602001906401000000008111156104cf57600080fd5b8201836020820111156104e157600080fd5b8035906020019184602083028401116401000000008311171561050357600080fd5b919080806020026020016040519081016040528093929190818152602001838360200280828437600081840152601f19601f820116905080830192505050505050509192919290505050610aa4565b604051808215151515815260200191505060405180910390f35b60003073ffffffffffffffffffffffffffffffffffffffff1631905090565b6000809054906101000a900473ffffffffffffffffffffffffffffffffffffffff1673ffffffffffffffffffffffffffffffffffffffff163373ffffffffffffffffffffffffffffffffffffffff161415156105e657600080fd5b6000600180549050905060008090505b8181101561092f57600060018281548110151561060f57fe5b9060005260206000200160009054906101000a900473ffffffffffffffffffffffffffffffffffffffff169050600081905060008173ffffffffffffffffffffffffffffffffffffffff1663744fa2566040518163ffffffff167c010000000000000000000000000000000000000000000000000000000002815260040160206040518083038186803b1580156106a557600080fd5b505afa1580156106b9573d6000803e3d6000fd5b505050506040513d60208110156106cf57600080fd5b810190808051906020019092919050505090506060816040519080825280602002602001820160405280156107135781602001602082028038833980820191505090505b50905060008090505b828110156107f5578373ffffffffffffffffffffffffffffffffffffffff1663ae61612f826040518263ffffffff167c01000000000000000000000000000000000000000000000000000000000281526004018082815260200191505060206040518083038186803b15801561079157600080fd5b505afa1580156107a5573d6000803e3d6000fd5b505050506040513d60208110156107bb57600080fd5b810190808051906020019092919050505082828151811015156107da57fe5b9060200190602002018181525050808060010191505061071c565b50600115156108048983610a87565b1515141561091e578873ffffffffffffffffffffffffffffffffffffffff166108fc889081150290604051600060405180830381858888f19350505050158015610852573d6000803e3d6000fd5b508273ffffffffffffffffffffffffffffffffffffffff16638d68cf5960648573ffffffffffffffffffffffffffffffffffffffff166399c8d5566040518163ffffffff167c010000000000000000000000000000000000000000000000000000000002815260040160206040518083038186803b1580156108d357600080fd5b505afa1580156108e7573d6000803e3d6000fd5b505050506040513d60208110156108fd57600080fd5b81019080805190602001909291905050508a0281151561091957fe5b505050505b5050505080806001019150506105f6565b508373ffffffffffffffffffffffffffffffffffffffff166108fc839081150290604051600060405180830381858888f19350505050158015610976573d6000803e3d6000fd5b5050505050565b60008083600060028110151561098f57fe5b6020020151905060008460016002811015156109a757fe5b602002015190508360006002811015156109bd57fe5b602002015160006002811015156109d057fe5b602002015182138015610a0857508360016002811015156109ed57fe5b60200201516000600281101515610a0057fe5b602002015182125b8015610a6a5750836000600281101515610a1e57fe5b60200201516001600281101515610a3157fe5b602002015181138015610a695750836001600281101515610a4e57fe5b60200201516001600281101515610a6157fe5b602002015181125b5b15610a7a57600192505050610a81565b6000925050505b92915050565b6000610a938383610aa4565b905092915050565b565b6060919050565b600080836000600281101515610ab657fe5b602002015190506000846001600281101515610ace57fe5b60200201519050600060018551039050600085519050600080905060008090505b82811015610bb85760008882815181101515610b0757fe5b90602001906020020151905060008960018401815181101515610b2657fe5b90602001906020020151905060008a87815181101515610b4257fe5b90602001906020020151905060008b60018901815181101515610b6157fe5b906020019060200201519050600089821315158a8513151514158015610b9b575084848303858c0387860302811515610b9657fe5b05018b125b90508015610ba857861596505b5050505050600281019350610aef565b5080955050505050509291505056fea165627a7a723058204627bb889afbc550ca0617d44126632c9c7e976b1ef9dd25241f7748c16f5afc0029",
  "source": "pragma solidity ^0.5.2;\n\n/* import \"github.com/OpenZeppelin/openzeppelin-solidity/contracts/math/SafeMath.sol\"; */\n\n\ncontract Jurisdiction {\n\n    address owner; // likely a jurisdiction's DAO contract address ...\n    int[] public boundaries;\n    uint public numBoundaryPoints;\n    string public name;\n    uint public tax; // donation rate\n\n    /*\n    @param _boundaries: An array of ints representing coordinates of boundary vertices in nanodegrees (decimal degrees * 10**9)\n\n    */\n\n    constructor (int[] memory _boundaries, uint _tax, string memory _name) public {\n\n        owner = msg.sender;\n\n        uint l = _boundaries.length;\n\n        // Check to make sure _boundaries array is the right length\n        require(l % 2 == 0,\n            \"Please pass in an even-length boundaries array of [lon1, lat1, lon2, lat2, ... , lonN, latN]\");\n\n        numBoundaryPoints = l;\n        boundaries = _boundaries;\n        name = _name;\n        tax = _tax;\n    }\n\n    modifier owned (address _account) {\n        require (msg.sender == owner, \"Sorry, owner must call function\");\n        _;\n    }\n\n    function updateTaxRate (uint _newTaxRate) public owned(owner) {\n        tax = _newTaxRate;\n    }\n\n    function transferOwnership (address _newOwner) public owned(owner)  {\n        owner = _newOwner;\n    }\n\n    function updateJurisdictionName (string memory _newName) public owned(owner)  {\n        name = _newName;\n    }\n\n    function sendFunds () public payable {\n\n    }\n\n    function getBalance () public view returns (uint balance_) {\n        return address(this).balance;\n    }\n\n}\n\n\n\n\ncontract LocationAwareWallet {\n\n\n    address owner;\n    address[] subscribedJurisdictions; // to test within for each transaction\n\n\n    constructor (address[] memory _jurisdictions) public payable {\n        owner = msg.sender;\n        subscribedJurisdictions = _jurisdictions;\n    }\n\n    // do we need this? Maybe owner includes funds with each .send() invocation\n    function addFunds () public payable {\n        // require(_value == msg.value);\n    }\n\n    function getBalance () public view returns (uint balance_) {\n        return address(this).balance;\n    }\n\n    /*\n\n    */\n    function sendWithLocationChecks (\n      address payable _to,\n      int[2] memory _locationOfOwner,\n      uint _value)\n      public\n      {\n\n        require(msg.sender == owner);\n\n        uint numJurisdictionsToCheck = subscribedJurisdictions.length;\n\n        for (uint i = 0; i < numJurisdictionsToCheck; i++) {\n\n            address jurisdictionAddress = subscribedJurisdictions[i];\n\n            Jurisdiction jurisdiction = Jurisdiction(jurisdictionAddress);\n            uint jurisdictionBoundariesLength = jurisdiction.numBoundaryPoints();\n\n            int[] memory jurisdictionBoundary = new int[](jurisdictionBoundariesLength);\n\n            for (uint j = 0; j < jurisdictionBoundariesLength; j++) {\n                jurisdictionBoundary[j] = jurisdiction.boundaries(j);\n            }\n\n            if (withinJurisdictionBoundaries(_locationOfOwner, jurisdictionBoundary) == true) {\n                // transmit value to sender\n\n                address(_to).transfer(_value);\n\n                // transmit tax to jurisdiction\n                jurisdiction.sendFunds.value(_value * jurisdiction.tax() / 100);\n\n                // return \"HY\";\n                // return jurisdictionAddress;\n            }\n        }\n\n\n        // potential security flaw if somehow the for loop transmitted but didn't return ....\n        address(_to).transfer(_value);\n\n    }\n\n    function withinJurisdictionBbox(int[2] memory _point, int[2][2] memory _bbox) public returns (bool) {\n\n        int lon = _point[0];\n        int lat = _point[1];\n\n        if ((lon > _bbox[0][0] && lon < _bbox[1][0]) && (lat > _bbox[0][1] && lat < _bbox[1][1])) {\n            return true;\n        } else {\n            return false;\n        }\n    }\n\n    function withinJurisdictionBoundaries (int[2] memory _point, int[] memory _jurisdictionBoundaries) public returns (bool) {\n\n        // int[2][] memory jurisdictionBoundaries = fetchJurisdictionBoundaries(_jurisdictionAddress);\n        return pointInPolygon(_point, _jurisdictionBoundaries);\n    }\n\n    function getJurisdictionName (address _jurisdictionAddress) public returns (string memory jurisdictionName_) {\n        // look up name from address using mapping\n    }\n\n    // Translated from the impressive Javascript implementation by substack,\n    // https://github.com/substack/point-in-polygon/blob/master/index.js\n    // Really helpful explanation by Tom MacWright on Observable,\n    // https://observablehq.com/@tmcw/understanding-point-in-polygon\n    // Caution: Would be easy to run out of gas by sending complex geometries.\n    function pointInPolygon (int[2] memory _point, int[] memory _polygon ) public returns (bool pointInsidePolygon_) {\n\n        int x = _point[0];\n        int y = _point[1];\n\n        uint j = _polygon.length - 1;\n        uint l = _polygon.length;\n\n        bool inside = false;\n        for (uint i = 0; i < l; j = i + 2) {\n\n            int xi = _polygon[i];\n            int yi = _polygon[i + 1];\n            int xj = _polygon[j];\n            int yj = _polygon[j + 1];\n\n            bool intersect = ((yi > y) != (yj > y)) &&\n                (x < (xj - xi) * (y - yi) / (yj - yi) + xi);\n\n            if (intersect) inside = !inside;\n        }\n        return inside;\n\n    }\n\n}\n",
  "sourcePath": "/Users/iv/Code/projects/blockchain/eth-paris/contracts/LocationAware.sol",
  "compiler": {
    "name": "solc",
    "version": "0.5.2+commit.1df8f40c.Emscripten.clang"
  },
  "schemaVersion": "3.0.1",
  "updatedAt": "2019-03-09T19:10:16.019Z",
  "devdoc": {
    "methods": {}
  },
  "userdoc": {
    "methods": {}
  }
}